{
  "_format": "hh-sol-artifact-1",
  "contractName": "MerkleProof",
  "sourceName": "contracts/Zombeez.sol",
  "abi": [
    {
      "inputs": [
        {
          "internalType": "bytes32",
          "name": "root",
          "type": "bytes32"
        },
        {
          "internalType": "bytes32",
          "name": "leaf",
          "type": "bytes32"
        },
        {
          "internalType": "bytes32[]",
          "name": "proof",
          "type": "bytes32[]"
        },
        {
          "internalType": "uint256[]",
          "name": "positions",
          "type": "uint256[]"
        }
      ],
      "name": "verify",
      "outputs": [
        {
          "internalType": "bool",
          "name": "",
          "type": "bool"
        }
      ],
      "stateMutability": "pure",
      "type": "function"
    }
  ],
  "bytecode": "0x608060405234801561001057600080fd5b506105c9806100206000396000f3fe608060405234801561001057600080fd5b506004361061002b5760003560e01c80639bb6dcc814610030575b600080fd5b61004a600480360381019061004591906102d5565b610060565b60405161005791906103ba565b60405180910390f35b60008084905060005b84518110156101705760008582815181106100ad577f4e487b7100000000000000000000000000000000000000000000000000000000600052603260045260246000fd5b6020026020010151905060018583815181106100f2577f4e487b7100000000000000000000000000000000000000000000000000000000600052603260045260246000fd5b6020026020010151141561013057828160405160200161011392919061038e565b60405160208183030381529060405280519060200120925061015c565b808360405160200161014392919061038e565b6040516020818303038152906040528051906020012092505b508080610168906104a3565b915050610069565b50858114915050949350505050565b600061019261018d846103fa565b6103d5565b905080838252602082019050828560208602820111156101b157600080fd5b60005b858110156101e157816101c788826102ab565b8452602084019350602083019250506001810190506101b4565b5050509392505050565b60006101fe6101f984610426565b6103d5565b9050808382526020820190508285602086028201111561021d57600080fd5b60005b8581101561024d578161023388826102c0565b845260208401935060208301925050600181019050610220565b5050509392505050565b600082601f83011261026857600080fd5b813561027884826020860161017f565b91505092915050565b600082601f83011261029257600080fd5b81356102a28482602086016101eb565b91505092915050565b6000813590506102ba81610565565b92915050565b6000813590506102cf8161057c565b92915050565b600080600080608085870312156102eb57600080fd5b60006102f9878288016102ab565b945050602061030a878288016102ab565b935050604085013567ffffffffffffffff81111561032757600080fd5b61033387828801610257565b925050606085013567ffffffffffffffff81111561035057600080fd5b61035c87828801610281565b91505092959194509250565b61037181610452565b82525050565b6103886103838261045e565b6104ec565b82525050565b600061039a8285610377565b6020820191506103aa8284610377565b6020820191508190509392505050565b60006020820190506103cf6000830184610368565b92915050565b60006103df6103f0565b90506103eb8282610472565b919050565b6000604051905090565b600067ffffffffffffffff82111561041557610414610525565b5b602082029050602081019050919050565b600067ffffffffffffffff82111561044157610440610525565b5b602082029050602081019050919050565b60008115159050919050565b6000819050919050565b6000819050919050565b61047b82610554565b810181811067ffffffffffffffff8211171561049a57610499610525565b5b80604052505050565b60006104ae82610468565b91507fffffffffffffffffffffffffffffffffffffffffffffffffffffffffffffffff8214156104e1576104e06104f6565b5b600182019050919050565b6000819050919050565b7f4e487b7100000000000000000000000000000000000000000000000000000000600052601160045260246000fd5b7f4e487b7100000000000000000000000000000000000000000000000000000000600052604160045260246000fd5b6000601f19601f8301169050919050565b61056e8161045e565b811461057957600080fd5b50565b61058581610468565b811461059057600080fd5b5056fea26469706673582212203113eced6d4d739e32cfd7c8f77eae01c32caa6188662888dbd98534e934158964736f6c63430008040033",
  "linkReferences": {},
  "deployedLinkReferences": {}
}